{
  "contractName": "EHR",
  "abi": [
    {
      "anonymous": false,
      "inputs": [
        {
          "indexed": true,
          "internalType": "address",
          "name": "patientAddress",
          "type": "address"
        },
        {
          "indexed": true,
          "internalType": "address",
          "name": "doctorAddress",
          "type": "address"
        },
        {
          "indexed": false,
          "internalType": "string",
          "name": "patientName",
          "type": "string"
        },
        {
          "indexed": false,
          "internalType": "string",
          "name": "data",
          "type": "string"
        }
      ],
      "name": "RecordAdded",
      "type": "event"
    },
    {
      "inputs": [
        {
          "internalType": "address",
          "name": "",
          "type": "address"
        }
      ],
      "name": "doctors",
      "outputs": [
        {
          "internalType": "string",
          "name": "hospital",
          "type": "string"
        }
      ],
      "stateMutability": "view",
      "type": "function"
    },
    {
      "inputs": [
        {
          "internalType": "address",
          "name": "",
          "type": "address"
        },
        {
          "internalType": "uint256",
          "name": "",
          "type": "uint256"
        }
      ],
      "name": "patientRecords",
      "outputs": [
        {
          "internalType": "address",
          "name": "doctorAddress",
          "type": "address"
        },
        {
          "internalType": "string",
          "name": "patientName",
          "type": "string"
        },
        {
          "internalType": "string",
          "name": "data",
          "type": "string"
        }
      ],
      "stateMutability": "view",
      "type": "function"
    },
    {
      "inputs": [
        {
          "internalType": "string",
          "name": "_hospital",
          "type": "string"
        }
      ],
      "name": "addDoctor",
      "outputs": [],
      "stateMutability": "nonpayable",
      "type": "function"
    },
    {
      "inputs": [
        {
          "internalType": "address",
          "name": "_patientAddress",
          "type": "address"
        },
        {
          "internalType": "string",
          "name": "_patientName",
          "type": "string"
        },
        {
          "internalType": "string",
          "name": "_data",
          "type": "string"
        }
      ],
      "name": "addRecord",
      "outputs": [],
      "stateMutability": "nonpayable",
      "type": "function"
    },
    {
      "inputs": [
        {
          "internalType": "address",
          "name": "_patientAddress",
          "type": "address"
        }
      ],
      "name": "getRecords",
      "outputs": [
        {
          "components": [
            {
              "internalType": "address",
              "name": "doctorAddress",
              "type": "address"
            },
            {
              "internalType": "string",
              "name": "patientName",
              "type": "string"
            },
            {
              "internalType": "string",
              "name": "data",
              "type": "string"
            }
          ],
          "internalType": "struct EHR.Record[]",
          "name": "",
          "type": "tuple[]"
        }
      ],
      "stateMutability": "view",
      "type": "function"
    }
  ],
  "bytecode": "0x608060405234801561001057600080fd5b50610f18806100206000396000f3fe608060405234801561001057600080fd5b50600436106100575760003560e01c80630be617001461005c57806394f0df6114610078578063a0076e84146100aa578063a9583c22146100da578063d47b41d51461010a575b600080fd5b610076600480360381019061007191906109fd565b610126565b005b610092600480360381019061008d91906109c1565b610196565b6040516100a193929190610bee565b60405180910390f35b6100c460048036038101906100bf9190610919565b61030d565b6040516100d19190610c33565b60405180910390f35b6100f460048036038101906100ef9190610919565b610525565b6040516101019190610c55565b60405180910390f35b610124600480360381019061011f9190610942565b6105cb565b005b6040518060200160405280828152506000803373ffffffffffffffffffffffffffffffffffffffff1673ffffffffffffffffffffffffffffffffffffffff168152602001908152602001600020600082015181600001908051906020019061018f9291906107e4565b5090505050565b600160205281600052604060002081815481106101b257600080fd5b9060005260206000209060030201600091509150508060000160009054906101000a900473ffffffffffffffffffffffffffffffffffffffff16908060010180546101fc90610e13565b80601f016020809104026020016040519081016040528092919081815260200182805461022890610e13565b80156102755780601f1061024a57610100808354040283529160200191610275565b820191906000526020600020905b81548152906001019060200180831161025857829003601f168201915b50505050509080600201805461028a90610e13565b80601f01602080910402602001604051908101604052809291908181526020018280546102b690610e13565b80156103035780601f106102d857610100808354040283529160200191610303565b820191906000526020600020905b8154815290600101906020018083116102e657829003601f168201915b5050505050905083565b6060600160008373ffffffffffffffffffffffffffffffffffffffff1673ffffffffffffffffffffffffffffffffffffffff168152602001908152602001600020805480602002602001604051908101604052809291908181526020016000905b8282101561051a57838290600052602060002090600302016040518060600160405290816000820160009054906101000a900473ffffffffffffffffffffffffffffffffffffffff1673ffffffffffffffffffffffffffffffffffffffff1673ffffffffffffffffffffffffffffffffffffffff1681526020016001820180546103f790610e13565b80601f016020809104026020016040519081016040528092919081815260200182805461042390610e13565b80156104705780601f1061044557610100808354040283529160200191610470565b820191906000526020600020905b81548152906001019060200180831161045357829003601f168201915b5050505050815260200160028201805461048990610e13565b80601f01602080910402602001604051908101604052809291908181526020018280546104b590610e13565b80156105025780601f106104d757610100808354040283529160200191610502565b820191906000526020600020905b8154815290600101906020018083116104e557829003601f168201915b5050505050815250508152602001906001019061036e565b505050509050919050565b600060205280600052604060002060009150905080600001805461054890610e13565b80601f016020809104026020016040519081016040528092919081815260200182805461057490610e13565b80156105c15780601f10610596576101008083540402835291602001916105c1565b820191906000526020600020905b8154815290600101906020018083116105a457829003601f168201915b5050505050905081565b60008060003373ffffffffffffffffffffffffffffffffffffffff1673ffffffffffffffffffffffffffffffffffffffff168152602001908152602001600020600001805461061990610e13565b9050141561065c576040517f08c379a000000000000000000000000000000000000000000000000000000000815260040161065390610cae565b60405180910390fd5b600160008473ffffffffffffffffffffffffffffffffffffffff1673ffffffffffffffffffffffffffffffffffffffff16815260200190815260200160002060405180606001604052803373ffffffffffffffffffffffffffffffffffffffff16815260200184815260200183815250908060018154018082558091505060019003906000526020600020906003020160009091909190915060008201518160000160006101000a81548173ffffffffffffffffffffffffffffffffffffffff021916908373ffffffffffffffffffffffffffffffffffffffff16021790555060208201518160010190805190602001906107589291906107e4565b5060408201518160020190805190602001906107759291906107e4565b5050503373ffffffffffffffffffffffffffffffffffffffff168373ffffffffffffffffffffffffffffffffffffffff167f2fcca1d89f5968fbcc4c9df0f04b288b096b9f84dccc012abc40e4a5c14184f584846040516107d7929190610c77565b60405180910390a3505050565b8280546107f090610e13565b90600052602060002090601f0160209004810192826108125760008555610859565b82601f1061082b57805160ff1916838001178555610859565b82800160010185558215610859579182015b8281111561085857825182559160200191906001019061083d565b5b509050610866919061086a565b5090565b5b8082111561088357600081600090555060010161086b565b5090565b600061089a61089584610cff565b610cce565b9050828152602081018484840111156108b257600080fd5b6108bd848285610dd1565b509392505050565b6000813590506108d481610eb4565b92915050565b600082601f8301126108eb57600080fd5b81356108fb848260208601610887565b91505092915050565b60008135905061091381610ecb565b92915050565b60006020828403121561092b57600080fd5b6000610939848285016108c5565b91505092915050565b60008060006060848603121561095757600080fd5b6000610965868287016108c5565b935050602084013567ffffffffffffffff81111561098257600080fd5b61098e868287016108da565b925050604084013567ffffffffffffffff8111156109ab57600080fd5b6109b7868287016108da565b9150509250925092565b600080604083850312156109d457600080fd5b60006109e2858286016108c5565b92505060206109f385828601610904565b9150509250929050565b600060208284031215610a0f57600080fd5b600082013567ffffffffffffffff811115610a2957600080fd5b610a35848285016108da565b91505092915050565b6000610a4a8383610b97565b905092915050565b610a5b81610d95565b82525050565b610a6a81610d95565b82525050565b6000610a7b82610d3f565b610a858185610d62565b935083602082028501610a9785610d2f565b8060005b85811015610ad35784840389528151610ab48582610a3e565b9450610abf83610d55565b925060208a01995050600181019050610a9b565b50829750879550505050505092915050565b6000610af082610d4a565b610afa8185610d73565b9350610b0a818560208601610de0565b610b1381610ea3565b840191505092915050565b6000610b2982610d4a565b610b338185610d84565b9350610b43818560208601610de0565b610b4c81610ea3565b840191505092915050565b6000610b64601583610d84565b91507f446f63746f72206e6f74207265676973746572656400000000000000000000006000830152602082019050919050565b6000606083016000830151610baf6000860182610a52565b5060208301518482036020860152610bc78282610ae5565b91505060408301518482036040860152610be18282610ae5565b9150508091505092915050565b6000606082019050610c036000830186610a61565b8181036020830152610c158185610b1e565b90508181036040830152610c298184610b1e565b9050949350505050565b60006020820190508181036000830152610c4d8184610a70565b905092915050565b60006020820190508181036000830152610c6f8184610b1e565b905092915050565b60006040820190508181036000830152610c918185610b1e565b90508181036020830152610ca58184610b1e565b90509392505050565b60006020820190508181036000830152610cc781610b57565b9050919050565b6000604051905081810181811067ffffffffffffffff82111715610cf557610cf4610e74565b5b8060405250919050565b600067ffffffffffffffff821115610d1a57610d19610e74565b5b601f19601f8301169050602081019050919050565b6000819050602082019050919050565b600081519050919050565b600081519050919050565b6000602082019050919050565b600082825260208201905092915050565b600082825260208201905092915050565b600082825260208201905092915050565b6000610da082610da7565b9050919050565b600073ffffffffffffffffffffffffffffffffffffffff82169050919050565b6000819050919050565b82818337600083830152505050565b60005b83811015610dfe578082015181840152602081019050610de3565b83811115610e0d576000848401525b50505050565b60006002820490506001821680610e2b57607f821691505b60208210811415610e3f57610e3e610e45565b5b50919050565b7f4e487b7100000000000000000000000000000000000000000000000000000000600052602260045260246000fd5b7f4e487b7100000000000000000000000000000000000000000000000000000000600052604160045260246000fd5b6000601f19601f8301169050919050565b610ebd81610d95565b8114610ec857600080fd5b50565b610ed481610dc7565b8114610edf57600080fd5b5056fea2646970667358221220fbda15ba62a3c7fc10825718abb810daee3c3aa8c61927c6280982085928381164736f6c63430008000033",
  "immutableReferences": {},
  "source": "// SPDX-License-Identifier: MIT\r\npragma solidity ^0.8.0;\r\n\r\ncontract EHR {\r\n    struct Doctor {\r\n        string hospital;\r\n    }\r\n\r\n    struct Record {\r\n        address doctorAddress;\r\n        string patientName;\r\n        string data;\r\n    }\r\n\r\n    mapping(address => Doctor) public doctors;\r\n    mapping(address => Record[]) public patientRecords;\r\n\r\n    event RecordAdded(address indexed patientAddress, address indexed doctorAddress, string patientName, string data);\r\n\r\n    // Function to add a new doctor\r\n    function addDoctor(string memory _hospital) public {\r\n        doctors[msg.sender] = Doctor(_hospital);\r\n    }\r\n\r\n    // Function to add a record for a patient\r\n    function addRecord(address _patientAddress, string memory _patientName, string memory _data) public {\r\n        require(bytes(doctors[msg.sender].hospital).length != 0, \"Doctor not registered\");\r\n        patientRecords[_patientAddress].push(Record(msg.sender, _patientName, _data));\r\n        emit RecordAdded(_patientAddress, msg.sender, _patientName, _data);\r\n    }\r\n\r\n    // Function to get records of a patient\r\n    function getRecords(address _patientAddress) public view returns (Record[] memory) {\r\n        return patientRecords[_patientAddress];\r\n    }\r\n}\r\n",
  "sourcePath": "C:\\Users\\lenovo\\Documents\\EHR-DEC\\contracts\\EHR.sol",
  "compiler": {
    "name": "solc",
    "version": "0.8.0+commit.c7dfd78e.Emscripten.clang"
  },
  "schemaVersion": "3.4.16",
  "updatedAt": "2024-07-02T13:42:08.613Z",
  "devdoc": {
    "kind": "dev",
    "methods": {},
    "version": 1
  },
  "userdoc": {
    "kind": "user",
    "methods": {},
    "version": 1
  }
}